{
  "contractName": "PepeRouter",
  "abi": [
    {
      "inputs": [
        {
          "internalType": "address",
          "name": "_factory",
          "type": "address"
        },
        {
          "internalType": "address",
          "name": "_WBNB",
          "type": "address"
        }
      ],
      "stateMutability": "nonpayable",
      "type": "constructor"
    },
    {
      "inputs": [],
      "name": "WBNB",
      "outputs": [
        {
          "internalType": "address",
          "name": "",
          "type": "address"
        }
      ],
      "stateMutability": "view",
      "type": "function",
      "constant": true
    },
    {
      "inputs": [],
      "name": "factory",
      "outputs": [
        {
          "internalType": "address",
          "name": "",
          "type": "address"
        }
      ],
      "stateMutability": "view",
      "type": "function",
      "constant": true
    },
    {
      "stateMutability": "payable",
      "type": "receive",
      "payable": true
    },
    {
      "inputs": [
        {
          "internalType": "address",
          "name": "tokenA",
          "type": "address"
        },
        {
          "internalType": "address",
          "name": "tokenB",
          "type": "address"
        },
        {
          "internalType": "uint256",
          "name": "amountADesired",
          "type": "uint256"
        },
        {
          "internalType": "uint256",
          "name": "amountBDesired",
          "type": "uint256"
        },
        {
          "internalType": "uint256",
          "name": "amountAMin",
          "type": "uint256"
        },
        {
          "internalType": "uint256",
          "name": "amountBMin",
          "type": "uint256"
        },
        {
          "internalType": "address",
          "name": "to",
          "type": "address"
        },
        {
          "internalType": "uint256",
          "name": "deadline",
          "type": "uint256"
        }
      ],
      "name": "addLiquidity",
      "outputs": [
        {
          "internalType": "uint256",
          "name": "amountA",
          "type": "uint256"
        },
        {
          "internalType": "uint256",
          "name": "amountB",
          "type": "uint256"
        },
        {
          "internalType": "uint256",
          "name": "liquidity",
          "type": "uint256"
        }
      ],
      "stateMutability": "nonpayable",
      "type": "function"
    },
    {
      "inputs": [
        {
          "internalType": "address",
          "name": "token",
          "type": "address"
        },
        {
          "internalType": "uint256",
          "name": "amountTokenDesired",
          "type": "uint256"
        },
        {
          "internalType": "uint256",
          "name": "amountTokenMin",
          "type": "uint256"
        },
        {
          "internalType": "uint256",
          "name": "amountBNBMin",
          "type": "uint256"
        },
        {
          "internalType": "address",
          "name": "to",
          "type": "address"
        },
        {
          "internalType": "uint256",
          "name": "deadline",
          "type": "uint256"
        }
      ],
      "name": "addLiquidityBNB",
      "outputs": [
        {
          "internalType": "uint256",
          "name": "amountToken",
          "type": "uint256"
        },
        {
          "internalType": "uint256",
          "name": "amountBNB",
          "type": "uint256"
        },
        {
          "internalType": "uint256",
          "name": "liquidity",
          "type": "uint256"
        }
      ],
      "stateMutability": "payable",
      "type": "function",
      "payable": true
    },
    {
      "inputs": [
        {
          "internalType": "address",
          "name": "tokenA",
          "type": "address"
        },
        {
          "internalType": "address",
          "name": "tokenB",
          "type": "address"
        },
        {
          "internalType": "uint256",
          "name": "liquidity",
          "type": "uint256"
        },
        {
          "internalType": "uint256",
          "name": "amountAMin",
          "type": "uint256"
        },
        {
          "internalType": "uint256",
          "name": "amountBMin",
          "type": "uint256"
        },
        {
          "internalType": "address",
          "name": "to",
          "type": "address"
        },
        {
          "internalType": "uint256",
          "name": "deadline",
          "type": "uint256"
        }
      ],
      "name": "removeLiquidity",
      "outputs": [
        {
          "internalType": "uint256",
          "name": "amountA",
          "type": "uint256"
        },
        {
          "internalType": "uint256",
          "name": "amountB",
          "type": "uint256"
        }
      ],
      "stateMutability": "nonpayable",
      "type": "function"
    },
    {
      "inputs": [
        {
          "internalType": "address",
          "name": "token",
          "type": "address"
        },
        {
          "internalType": "uint256",
          "name": "liquidity",
          "type": "uint256"
        },
        {
          "internalType": "uint256",
          "name": "amountTokenMin",
          "type": "uint256"
        },
        {
          "internalType": "uint256",
          "name": "amountBNBMin",
          "type": "uint256"
        },
        {
          "internalType": "address",
          "name": "to",
          "type": "address"
        },
        {
          "internalType": "uint256",
          "name": "deadline",
          "type": "uint256"
        }
      ],
      "name": "removeLiquidityBNB",
      "outputs": [
        {
          "internalType": "uint256",
          "name": "amountToken",
          "type": "uint256"
        },
        {
          "internalType": "uint256",
          "name": "amountBNB",
          "type": "uint256"
        }
      ],
      "stateMutability": "nonpayable",
      "type": "function"
    },
    {
      "inputs": [
        {
          "internalType": "address",
          "name": "tokenA",
          "type": "address"
        },
        {
          "internalType": "address",
          "name": "tokenB",
          "type": "address"
        },
        {
          "internalType": "uint256",
          "name": "liquidity",
          "type": "uint256"
        },
        {
          "internalType": "uint256",
          "name": "amountAMin",
          "type": "uint256"
        },
        {
          "internalType": "uint256",
          "name": "amountBMin",
          "type": "uint256"
        },
        {
          "internalType": "address",
          "name": "to",
          "type": "address"
        },
        {
          "internalType": "uint256",
          "name": "deadline",
          "type": "uint256"
        },
        {
          "internalType": "bool",
          "name": "approveMax",
          "type": "bool"
        },
        {
          "internalType": "uint8",
          "name": "v",
          "type": "uint8"
        },
        {
          "internalType": "bytes32",
          "name": "r",
          "type": "bytes32"
        },
        {
          "internalType": "bytes32",
          "name": "s",
          "type": "bytes32"
        }
      ],
      "name": "removeLiquidityWithPermit",
      "outputs": [
        {
          "internalType": "uint256",
          "name": "amountA",
          "type": "uint256"
        },
        {
          "internalType": "uint256",
          "name": "amountB",
          "type": "uint256"
        }
      ],
      "stateMutability": "nonpayable",
      "type": "function"
    },
    {
      "inputs": [
        {
          "internalType": "address",
          "name": "token",
          "type": "address"
        },
        {
          "internalType": "uint256",
          "name": "liquidity",
          "type": "uint256"
        },
        {
          "internalType": "uint256",
          "name": "amountTokenMin",
          "type": "uint256"
        },
        {
          "internalType": "uint256",
          "name": "amountBNBMin",
          "type": "uint256"
        },
        {
          "internalType": "address",
          "name": "to",
          "type": "address"
        },
        {
          "internalType": "uint256",
          "name": "deadline",
          "type": "uint256"
        },
        {
          "internalType": "bool",
          "name": "approveMax",
          "type": "bool"
        },
        {
          "internalType": "uint8",
          "name": "v",
          "type": "uint8"
        },
        {
          "internalType": "bytes32",
          "name": "r",
          "type": "bytes32"
        },
        {
          "internalType": "bytes32",
          "name": "s",
          "type": "bytes32"
        }
      ],
      "name": "removeLiquidityBNBWithPermit",
      "outputs": [
        {
          "internalType": "uint256",
          "name": "amountToken",
          "type": "uint256"
        },
        {
          "internalType": "uint256",
          "name": "amountBNB",
          "type": "uint256"
        }
      ],
      "stateMutability": "nonpayable",
      "type": "function"
    },
    {
      "inputs": [
        {
          "internalType": "address",
          "name": "token",
          "type": "address"
        },
        {
          "internalType": "uint256",
          "name": "liquidity",
          "type": "uint256"
        },
        {
          "internalType": "uint256",
          "name": "amountTokenMin",
          "type": "uint256"
        },
        {
          "internalType": "uint256",
          "name": "amountBNBMin",
          "type": "uint256"
        },
        {
          "internalType": "address",
          "name": "to",
          "type": "address"
        },
        {
          "internalType": "uint256",
          "name": "deadline",
          "type": "uint256"
        }
      ],
      "name": "removeLiquidityBNBSupportingFeeOnTransferTokens",
      "outputs": [
        {
          "internalType": "uint256",
          "name": "amountBNB",
          "type": "uint256"
        }
      ],
      "stateMutability": "nonpayable",
      "type": "function"
    },
    {
      "inputs": [
        {
          "internalType": "address",
          "name": "token",
          "type": "address"
        },
        {
          "internalType": "uint256",
          "name": "liquidity",
          "type": "uint256"
        },
        {
          "internalType": "uint256",
          "name": "amountTokenMin",
          "type": "uint256"
        },
        {
          "internalType": "uint256",
          "name": "amountBNBMin",
          "type": "uint256"
        },
        {
          "internalType": "address",
          "name": "to",
          "type": "address"
        },
        {
          "internalType": "uint256",
          "name": "deadline",
          "type": "uint256"
        },
        {
          "internalType": "bool",
          "name": "approveMax",
          "type": "bool"
        },
        {
          "internalType": "uint8",
          "name": "v",
          "type": "uint8"
        },
        {
          "internalType": "bytes32",
          "name": "r",
          "type": "bytes32"
        },
        {
          "internalType": "bytes32",
          "name": "s",
          "type": "bytes32"
        }
      ],
      "name": "removeLiquidityBNBWithPermitSupportingFeeOnTransferTokens",
      "outputs": [
        {
          "internalType": "uint256",
          "name": "amountBNB",
          "type": "uint256"
        }
      ],
      "stateMutability": "nonpayable",
      "type": "function"
    },
    {
      "inputs": [
        {
          "internalType": "uint256",
          "name": "amountIn",
          "type": "uint256"
        },
        {
          "internalType": "uint256",
          "name": "amountOutMin",
          "type": "uint256"
        },
        {
          "internalType": "address[]",
          "name": "path",
          "type": "address[]"
        },
        {
          "internalType": "address",
          "name": "to",
          "type": "address"
        },
        {
          "internalType": "uint256",
          "name": "deadline",
          "type": "uint256"
        }
      ],
      "name": "swapExactTokensForTokens",
      "outputs": [
        {
          "internalType": "uint256[]",
          "name": "amounts",
          "type": "uint256[]"
        }
      ],
      "stateMutability": "nonpayable",
      "type": "function"
    },
    {
      "inputs": [
        {
          "internalType": "uint256",
          "name": "amountOut",
          "type": "uint256"
        },
        {
          "internalType": "uint256",
          "name": "amountInMax",
          "type": "uint256"
        },
        {
          "internalType": "address[]",
          "name": "path",
          "type": "address[]"
        },
        {
          "internalType": "address",
          "name": "to",
          "type": "address"
        },
        {
          "internalType": "uint256",
          "name": "deadline",
          "type": "uint256"
        }
      ],
      "name": "swapTokensForExactTokens",
      "outputs": [
        {
          "internalType": "uint256[]",
          "name": "amounts",
          "type": "uint256[]"
        }
      ],
      "stateMutability": "nonpayable",
      "type": "function"
    },
    {
      "inputs": [
        {
          "internalType": "uint256",
          "name": "amountOutMin",
          "type": "uint256"
        },
        {
          "internalType": "address[]",
          "name": "path",
          "type": "address[]"
        },
        {
          "internalType": "address",
          "name": "to",
          "type": "address"
        },
        {
          "internalType": "uint256",
          "name": "deadline",
          "type": "uint256"
        }
      ],
      "name": "swapExactBNBForTokens",
      "outputs": [
        {
          "internalType": "uint256[]",
          "name": "amounts",
          "type": "uint256[]"
        }
      ],
      "stateMutability": "payable",
      "type": "function",
      "payable": true
    },
    {
      "inputs": [
        {
          "internalType": "uint256",
          "name": "amountOut",
          "type": "uint256"
        },
        {
          "internalType": "uint256",
          "name": "amountInMax",
          "type": "uint256"
        },
        {
          "internalType": "address[]",
          "name": "path",
          "type": "address[]"
        },
        {
          "internalType": "address",
          "name": "to",
          "type": "address"
        },
        {
          "internalType": "uint256",
          "name": "deadline",
          "type": "uint256"
        }
      ],
      "name": "swapTokensForExactBNB",
      "outputs": [
        {
          "internalType": "uint256[]",
          "name": "amounts",
          "type": "uint256[]"
        }
      ],
      "stateMutability": "nonpayable",
      "type": "function"
    },
    {
      "inputs": [
        {
          "internalType": "uint256",
          "name": "amountIn",
          "type": "uint256"
        },
        {
          "internalType": "uint256",
          "name": "amountOutMin",
          "type": "uint256"
        },
        {
          "internalType": "address[]",
          "name": "path",
          "type": "address[]"
        },
        {
          "internalType": "address",
          "name": "to",
          "type": "address"
        },
        {
          "internalType": "uint256",
          "name": "deadline",
          "type": "uint256"
        }
      ],
      "name": "swapExactTokensForBNB",
      "outputs": [
        {
          "internalType": "uint256[]",
          "name": "amounts",
          "type": "uint256[]"
        }
      ],
      "stateMutability": "nonpayable",
      "type": "function"
    },
    {
      "inputs": [
        {
          "internalType": "uint256",
          "name": "amountOut",
          "type": "uint256"
        },
        {
          "internalType": "address[]",
          "name": "path",
          "type": "address[]"
        },
        {
          "internalType": "address",
          "name": "to",
          "type": "address"
        },
        {
          "internalType": "uint256",
          "name": "deadline",
          "type": "uint256"
        }
      ],
      "name": "swapBNBForExactTokens",
      "outputs": [
        {
          "internalType": "uint256[]",
          "name": "amounts",
          "type": "uint256[]"
        }
      ],
      "stateMutability": "payable",
      "type": "function",
      "payable": true
    },
    {
      "inputs": [
        {
          "internalType": "uint256",
          "name": "amountIn",
          "type": "uint256"
        },
        {
          "internalType": "uint256",
          "name": "amountOutMin",
          "type": "uint256"
        },
        {
          "internalType": "address[]",
          "name": "path",
          "type": "address[]"
        },
        {
          "internalType": "address",
          "name": "to",
          "type": "address"
        },
        {
          "internalType": "uint256",
          "name": "deadline",
          "type": "uint256"
        }
      ],
      "name": "swapExactTokensForTokensSupportingFeeOnTransferTokens",
      "outputs": [],
      "stateMutability": "nonpayable",
      "type": "function"
    },
    {
      "inputs": [
        {
          "internalType": "uint256",
          "name": "amountOutMin",
          "type": "uint256"
        },
        {
          "internalType": "address[]",
          "name": "path",
          "type": "address[]"
        },
        {
          "internalType": "address",
          "name": "to",
          "type": "address"
        },
        {
          "internalType": "uint256",
          "name": "deadline",
          "type": "uint256"
        }
      ],
      "name": "swapExactBNBForTokensSupportingFeeOnTransferTokens",
      "outputs": [],
      "stateMutability": "payable",
      "type": "function",
      "payable": true
    },
    {
      "inputs": [
        {
          "internalType": "uint256",
          "name": "amountIn",
          "type": "uint256"
        },
        {
          "internalType": "uint256",
          "name": "amountOutMin",
          "type": "uint256"
        },
        {
          "internalType": "address[]",
          "name": "path",
          "type": "address[]"
        },
        {
          "internalType": "address",
          "name": "to",
          "type": "address"
        },
        {
          "internalType": "uint256",
          "name": "deadline",
          "type": "uint256"
        }
      ],
      "name": "swapExactTokensForBNBSupportingFeeOnTransferTokens",
      "outputs": [],
      "stateMutability": "nonpayable",
      "type": "function"
    },
    {
      "inputs": [
        {
          "internalType": "uint256",
          "name": "amountA",
          "type": "uint256"
        },
        {
          "internalType": "uint256",
          "name": "reserveA",
          "type": "uint256"
        },
        {
          "internalType": "uint256",
          "name": "reserveB",
          "type": "uint256"
        }
      ],
      "name": "quote",
      "outputs": [
        {
          "internalType": "uint256",
          "name": "amountB",
          "type": "uint256"
        }
      ],
      "stateMutability": "pure",
      "type": "function",
      "constant": true
    },
    {
      "inputs": [
        {
          "internalType": "uint256",
          "name": "amountIn",
          "type": "uint256"
        },
        {
          "internalType": "uint256",
          "name": "reserveIn",
          "type": "uint256"
        },
        {
          "internalType": "uint256",
          "name": "reserveOut",
          "type": "uint256"
        }
      ],
      "name": "getAmountOut",
      "outputs": [
        {
          "internalType": "uint256",
          "name": "amountOut",
          "type": "uint256"
        }
      ],
      "stateMutability": "pure",
      "type": "function",
      "constant": true
    },
    {
      "inputs": [
        {
          "internalType": "uint256",
          "name": "amountOut",
          "type": "uint256"
        },
        {
          "internalType": "uint256",
          "name": "reserveIn",
          "type": "uint256"
        },
        {
          "internalType": "uint256",
          "name": "reserveOut",
          "type": "uint256"
        }
      ],
      "name": "getAmountIn",
      "outputs": [
        {
          "internalType": "uint256",
          "name": "amountIn",
          "type": "uint256"
        }
      ],
      "stateMutability": "pure",
      "type": "function",
      "constant": true
    },
    {
      "inputs": [
        {
          "internalType": "uint256",
          "name": "amountIn",
          "type": "uint256"
        },
        {
          "internalType": "address[]",
          "name": "path",
          "type": "address[]"
        }
      ],
      "name": "getAmountsOut",
      "outputs": [
        {
          "internalType": "uint256[]",
          "name": "amounts",
          "type": "uint256[]"
        }
      ],
      "stateMutability": "view",
      "type": "function",
      "constant": true
    },
    {
      "inputs": [
        {
          "internalType": "uint256",
          "name": "amountOut",
          "type": "uint256"
        },
        {
          "internalType": "address[]",
          "name": "path",
          "type": "address[]"
        }
      ],
      "name": "getAmountsIn",
      "outputs": [
        {
          "internalType": "uint256[]",
          "name": "amounts",
          "type": "uint256[]"
        }
      ],
      "stateMutability": "view",
      "type": "function",
      "constant": true
    }
  ],
  "bytecode": "0x60c060405234801561001057600080fd5b50604051620048ee380380620048ee8339818101604052604081101561003557600080fd5b5080516020909101516001600160601b0319606092831b8116608052911b1660a05260805160601c60a05160601c614769620001856000398061019f5280610e5e52806111805280611222528061129652806117c852806119655280611a435280611b775280611cc75280611d4f5280611fd8528061204a528061219d528061222552806123b9528061246852806127fa528061290152806129b75280612a955280612c335280612c6e5280612e9b5280612ef15280612f255280612f99525080610d095280610d425280610e3c5280610f99528061107052806112c852806115e152806118635280611a215280611c175280611d815280611f2852806120ea528061225752806125445280612755528061277e5280612b305280612d6b5280612ecf528061375e52806137a1528061394c5280613ad252806141f852806142bf528061433f52506147696000f3fe60806040526004361061018f5760003560e01c80638dd95002116100d6578063d06ca61f1161007f578063e058848811610059578063e058848814610bd4578063e8e3370014610c27578063eaaed44214610ca7576101c8565b8063d06ca61f146109ed578063d46d2f8314610aa4578063d67b571e14610b3c576101c8565b8063b7e65949116100b0578063b7e6594914610928578063baa2abde1461097b578063c45a0155146109d8576101c8565b80638dd950021461083b5780639cf689111461086c578063ad615dec146108f2576101c8565b80635c11d795116101385780638332a963116101125780638332a963146106e757806385f8c2591461076d5780638803dbee146107a3576101c8565b80635c11d795146105445780635d616c5b146105dc578063685a0a3414610674576101c8565b806334a0772d1161016957806334a0772d146103b357806338ed17391461042657806350e27df3146104be576101c8565b8063054d50d4146101cd5780631f00ca74146102155780632195995c1461031c576101c8565b366101c857336001600160a01b037f000000000000000000000000000000000000000000000000000000000000000016146101c657fe5b005b600080fd5b3480156101d957600080fd5b50610203600480360360608110156101f057600080fd5b5080359060208101359060400135610ced565b60408051918252519081900360200190f35b34801561022157600080fd5b506102cc6004803603604081101561023857600080fd5b8135919081019060408101602082013564010000000081111561025a57600080fd5b82018360208201111561026c57600080fd5b8035906020019184602083028401116401000000008311171561028e57600080fd5b919080806020026020016040519081016040528093929190818152602001838360200280828437600092019190915250929550610d02945050505050565b60408051602080825283518183015283519192839290830191858101910280838360005b838110156103085781810151838201526020016102f0565b505050509050019250505060405180910390f35b34801561032857600080fd5b5061039a600480360361016081101561034057600080fd5b506001600160a01b038135811691602081013582169160408201359160608101359160808201359160a08101359091169060c08101359060e081013515159060ff6101008201351690610120810135906101400135610d38565b6040805192835260208301919091528051918290030190f35b3480156103bf57600080fd5b5061039a60048036036101408110156103d757600080fd5b506001600160a01b0381358116916020810135916040820135916060810135916080820135169060a08101359060c081013515159060ff60e08201351690610100810135906101200135610e32565b34801561043257600080fd5b506102cc600480360360a081101561044957600080fd5b81359160208101359181019060608101604082013564010000000081111561047057600080fd5b82018360208201111561048257600080fd5b803590602001918460208302840111640100000000831117156104a457600080fd5b91935091506001600160a01b038135169060200135610f46565b6101c6600480360360808110156104d457600080fd5b813591908101906040810160208201356401000000008111156104f657600080fd5b82018360208201111561050857600080fd5b8035906020019184602083028401116401000000008311171561052a57600080fd5b91935091506001600160a01b038135169060200135611132565b34801561055057600080fd5b506101c6600480360360a081101561056757600080fd5b81359160208101359181019060608101604082013564010000000081111561058e57600080fd5b8201836020820111156105a057600080fd5b803590602001918460208302840111640100000000831117156105c257600080fd5b91935091506001600160a01b03813516906020013561156f565b3480156105e857600080fd5b506102cc600480360360a08110156105ff57600080fd5b81359160208101359181019060608101604082013564010000000081111561062657600080fd5b82018360208201111561063857600080fd5b8035906020019184602083028401116401000000008311171561065a57600080fd5b91935091506001600160a01b038135169060200135611770565b34801561068057600080fd5b50610203600480360361014081101561069857600080fd5b506001600160a01b0381358116916020810135916040820135916060810135916080820135169060a08101359060c081013515159060ff60e08201351690610100810135906101200135611a19565b6102cc600480360360808110156106fd57600080fd5b8135919081019060408101602082013564010000000081111561071f57600080fd5b82018360208201111561073157600080fd5b8035906020019184602083028401116401000000008311171561075357600080fd5b91935091506001600160a01b038135169060200135611b27565b34801561077957600080fd5b506102036004803603606081101561079057600080fd5b5080359060208101359060400135611ec8565b3480156107af57600080fd5b506102cc600480360360a08110156107c657600080fd5b8135916020810135918101906060810160408201356401000000008111156107ed57600080fd5b8201836020820111156107ff57600080fd5b8035906020019184602083028401116401000000008311171561082157600080fd5b91935091506001600160a01b038135169060200135611ed5565b34801561084757600080fd5b50610850611fd6565b604080516001600160a01b039092168252519081900360200190f35b6102cc6004803603608081101561088257600080fd5b813591908101906040810160208201356401000000008111156108a457600080fd5b8201836020820111156108b657600080fd5b803590602001918460208302840111640100000000831117156108d857600080fd5b91935091506001600160a01b038135169060200135611ffa565b3480156108fe57600080fd5b506102036004803603606081101561091557600080fd5b5080359060208101359060400135612358565b34801561093457600080fd5b50610203600480360360c081101561094b57600080fd5b506001600160a01b0381358116916020810135916040820135916060810135916080820135169060a00135612365565b34801561098757600080fd5b5061039a600480360360e081101561099e57600080fd5b506001600160a01b038135811691602081013582169160408201359160608101359160808201359160a08101359091169060c001356124ee565b3480156109e457600080fd5b50610850612753565b3480156109f957600080fd5b506102cc60048036036040811015610a1057600080fd5b81359190810190604081016020820135640100000000811115610a3257600080fd5b820183602082011115610a4457600080fd5b80359060200191846020830284011164010000000083111715610a6657600080fd5b919080806020026020016040519081016040528093929190818152602001838360200280828437600092019190915250929550612777945050505050565b348015610ab057600080fd5b506101c6600480360360a0811015610ac757600080fd5b813591602081013591810190606081016040820135640100000000811115610aee57600080fd5b820183602082011115610b0057600080fd5b80359060200191846020830284011164010000000083111715610b2257600080fd5b91935091506001600160a01b0381351690602001356127a4565b348015610b4857600080fd5b506102cc600480360360a0811015610b5f57600080fd5b813591602081013591810190606081016040820135640100000000811115610b8657600080fd5b820183602082011115610b9857600080fd5b80359060200191846020830284011164010000000083111715610bba57600080fd5b91935091506001600160a01b038135169060200135612a3d565b348015610be057600080fd5b5061039a600480360360c0811015610bf757600080fd5b506001600160a01b0381358116916020810135916040820135916060810135916080820135169060a00135612bde565b348015610c3357600080fd5b50610c896004803603610100811015610c4b57600080fd5b506001600160a01b038135811691602081013582169160408201359160608101359160808201359160a08101359160c0820135169060e00135612d00565b60408051938452602084019290925282820152519081900360600190f35b610c89600480360360c0811015610cbd57600080fd5b506001600160a01b0381358116916020810135916040820135916060810135916080820135169060a00135612e44565b6000610cfa8484846130f1565b949350505050565b6060610d2f7f000000000000000000000000000000000000000000000000000000000000000084846131e1565b90505b92915050565b6000806000610d687f00000000000000000000000000000000000000000000000000000000000000008f8f61332e565b9050600087610d77578c610d7b565b6000195b6040805163d505accf60e01b815233600482015230602482015260448101839052606481018c905260ff8a16608482015260a4810189905260c4810188905290519192506001600160a01b0384169163d505accf9160e48082019260009290919082900301818387803b158015610df157600080fd5b505af1158015610e05573d6000803e3d6000fd5b50505050610e188f8f8f8f8f8f8f6124ee565b809450819550505050509b509b9950505050505050505050565b6000806000610e827f00000000000000000000000000000000000000000000000000000000000000008e7f000000000000000000000000000000000000000000000000000000000000000061332e565b9050600087610e91578c610e95565b6000195b6040805163d505accf60e01b815233600482015230602482015260448101839052606481018c905260ff8a16608482015260a4810189905260c4810188905290519192506001600160a01b0384169163d505accf9160e48082019260009290919082900301818387803b158015610f0b57600080fd5b505af1158015610f1f573d6000803e3d6000fd5b50505050610f318e8e8e8e8e8e612bde565b909f909e509c50505050505050505050505050565b60608142811015610f94576040805162461bcd60e51b815260206004820152601360248201527214195c19549bdd5d195c8e8811561412549151606a1b604482015290519081900360640190fd5b610ff27f00000000000000000000000000000000000000000000000000000000000000008988888080602002602001604051908101604052809392919081815260200183836020028082843760009201919091525061340692505050565b9150868260018451038151811061100557fe5b6020026020010151101561104a5760405162461bcd60e51b815260040180806020018281038252602681526020018061465c6026913960400191505060405180910390fd5b6110e88686600081811061105a57fe5b905060200201356001600160a01b0316336110ce7f00000000000000000000000000000000000000000000000000000000000000008a8a600081811061109c57fe5b905060200201356001600160a01b03168b8b60018181106110b957fe5b905060200201356001600160a01b031661332e565b856000815181106110db57fe5b602002602001015161353d565b611127828787808060200260200160405190810160405280939291908181526020018383602002808284376000920191909152508992506136af915050565b509695505050505050565b804281101561117e576040805162461bcd60e51b815260206004820152601360248201527214195c19549bdd5d195c8e8811561412549151606a1b604482015290519081900360640190fd5b7f00000000000000000000000000000000000000000000000000000000000000006001600160a01b0316858560008181106111b557fe5b905060200201356001600160a01b03166001600160a01b03161461121b576040805162461bcd60e51b81526020600482015260186024820152770a0cae0caa4deeae8cae47440929cac82989288bea082a8960431b604482015290519081900360640190fd5b60003490507f00000000000000000000000000000000000000000000000000000000000000006001600160a01b031663d0e30db0826040518263ffffffff1660e01b81526004016000604051808303818588803b15801561127b57600080fd5b505af115801561128f573d6000803e3d6000fd5b50505050507f00000000000000000000000000000000000000000000000000000000000000006001600160a01b031663a9059cbb6113117f0000000000000000000000000000000000000000000000000000000000000000898960008181106112f457fe5b905060200201356001600160a01b03168a8a60018181106110b957fe5b836040518363ffffffff1660e01b815260040180836001600160a01b03166001600160a01b0316815260200182815260200192505050602060405180830381600087803b15801561136157600080fd5b505af1158015611375573d6000803e3d6000fd5b505050506040513d602081101561138b57600080fd5b505161139357fe5b6000868660001981018181106113a557fe5b905060200201356001600160a01b03166001600160a01b03166370a08231866040518263ffffffff1660e01b815260040180826001600160a01b03166001600160a01b0316815260200191505060206040518083038186803b15801561140a57600080fd5b505afa15801561141e573d6000803e3d6000fd5b505050506040513d602081101561143457600080fd5b505160408051602089810282810182019093528982529293506114769290918a918a9182918501908490808284376000920191909152508992506138f5915050565b87611528828989600019810181811061148b57fe5b905060200201356001600160a01b03166001600160a01b03166370a08231896040518263ffffffff1660e01b815260040180826001600160a01b03166001600160a01b0316815260200191505060206040518083038186803b1580156114f057600080fd5b505afa158015611504573d6000803e3d6000fd5b505050506040513d602081101561151a57600080fd5b50519063ffffffff613c2516565b10156115655760405162461bcd60e51b815260040180806020018281038252602681526020018061465c6026913960400191505060405180910390fd5b5050505050505050565b80428110156115bb576040805162461bcd60e51b815260206004820152601360248201527214195c19549bdd5d195c8e8811561412549151606a1b604482015290519081900360640190fd5b611613858560008181106115cb57fe5b905060200201356001600160a01b03163361160d7f0000000000000000000000000000000000000000000000000000000000000000898960008181106112f457fe5b8a61353d565b60008585600019810181811061162557fe5b905060200201356001600160a01b03166001600160a01b03166370a08231856040518263ffffffff1660e01b815260040180826001600160a01b03166001600160a01b0316815260200191505060206040518083038186803b15801561168a57600080fd5b505afa15801561169e573d6000803e3d6000fd5b505050506040513d60208110156116b457600080fd5b505160408051602088810282810182019093528882529293506116f69290918991899182918501908490808284376000920191909152508892506138f5915050565b86611528828888600019810181811061170b57fe5b905060200201356001600160a01b03166001600160a01b03166370a08231886040518263ffffffff1660e01b815260040180826001600160a01b03166001600160a01b0316815260200191505060206040518083038186803b1580156114f057600080fd5b606081428110156117be576040805162461bcd60e51b815260206004820152601360248201527214195c19549bdd5d195c8e8811561412549151606a1b604482015290519081900360640190fd5b6001600160a01b037f000000000000000000000000000000000000000000000000000000000000000016868660001981018181106117f857fe5b905060200201356001600160a01b03166001600160a01b03161461185e576040805162461bcd60e51b81526020600482015260186024820152770a0cae0caa4deeae8cae47440929cac82989288bea082a8960431b604482015290519081900360640190fd5b6118bc7f00000000000000000000000000000000000000000000000000000000000000008988888080602002602001604051908101604052809392919081815260200183836020028082843760009201919091525061340692505050565b915086826001845103815181106118cf57fe5b602002602001015110156119145760405162461bcd60e51b815260040180806020018281038252602681526020018061465c6026913960400191505060405180910390fd5b6119248686600081811061105a57fe5b611963828787808060200260200160405190810160405280939291908181526020018383602002808284376000920191909152503092506136af915050565b7f00000000000000000000000000000000000000000000000000000000000000006001600160a01b0316632e1a7d4d836001855103815181106119a257fe5b60200260200101516040518263ffffffff1660e01b815260040180828152602001915050600060405180830381600087803b1580156119e057600080fd5b505af11580156119f4573d6000803e3d6000fd5b505050506111278483600185510381518110611a0c57fe5b6020026020010151613c7d565b600080611a677f00000000000000000000000000000000000000000000000000000000000000008d7f000000000000000000000000000000000000000000000000000000000000000061332e565b9050600086611a76578b611a7a565b6000195b6040805163d505accf60e01b815233600482015230602482015260448101839052606481018b905260ff8916608482015260a4810188905260c4810187905290519192506001600160a01b0384169163d505accf9160e48082019260009290919082900301818387803b158015611af057600080fd5b505af1158015611b04573d6000803e3d6000fd5b50505050611b168d8d8d8d8d8d612365565b9d9c50505050505050505050505050565b60608142811015611b75576040805162461bcd60e51b815260206004820152601360248201527214195c19549bdd5d195c8e8811561412549151606a1b604482015290519081900360640190fd5b7f00000000000000000000000000000000000000000000000000000000000000006001600160a01b031686866000818110611bac57fe5b905060200201356001600160a01b03166001600160a01b031614611c12576040805162461bcd60e51b81526020600482015260186024820152770a0cae0caa4deeae8cae47440929cac82989288bea082a8960431b604482015290519081900360640190fd5b611c707f0000000000000000000000000000000000000000000000000000000000000000888888808060200260200160405190810160405280939291908181526020018383602002808284376000920191909152506131e192505050565b91503482600081518110611c8057fe5b60200260200101511115611cc55760405162461bcd60e51b81526004018080602001828103825260228152602001806146826022913960400191505060405180910390fd5b7f00000000000000000000000000000000000000000000000000000000000000006001600160a01b031663d0e30db083600081518110611d0157fe5b60200260200101516040518263ffffffff1660e01b81526004016000604051808303818588803b158015611d3457600080fd5b505af1158015611d48573d6000803e3d6000fd5b50505050507f00000000000000000000000000000000000000000000000000000000000000006001600160a01b031663a9059cbb611dad7f0000000000000000000000000000000000000000000000000000000000000000898960008181106112f457fe5b84600081518110611dba57fe5b60200260200101516040518363ffffffff1660e01b815260040180836001600160a01b03166001600160a01b0316815260200182815260200192505050602060405180830381600087803b158015611e1157600080fd5b505af1158015611e25573d6000803e3d6000fd5b505050506040513d6020811015611e3b57600080fd5b5051611e4357fe5b611e82828787808060200260200160405190810160405280939291908181526020018383602002808284376000920191909152508992506136af915050565b81600081518110611e8f57fe5b6020026020010151341115611ebe57611ebe3383600081518110611eaf57fe5b60200260200101513403613c7d565b5095945050505050565b6000610cfa848484613d70565b60608142811015611f23576040805162461bcd60e51b815260206004820152601360248201527214195c19549bdd5d195c8e8811561412549151606a1b604482015290519081900360640190fd5b611f817f0000000000000000000000000000000000000000000000000000000000000000898888808060200260200160405190810160405280939291908181526020018383602002808284376000920191909152506131e192505050565b91508682600081518110611f9157fe5b6020026020010151111561104a5760405162461bcd60e51b81526004018080602001828103825260228152602001806146826022913960400191505060405180910390fd5b7f000000000000000000000000000000000000000000000000000000000000000081565b60608142811015612048576040805162461bcd60e51b815260206004820152601360248201527214195c19549bdd5d195c8e8811561412549151606a1b604482015290519081900360640190fd5b7f00000000000000000000000000000000000000000000000000000000000000006001600160a01b03168686600081811061207f57fe5b905060200201356001600160a01b03166001600160a01b0316146120e5576040805162461bcd60e51b81526020600482015260186024820152770a0cae0caa4deeae8cae47440929cac82989288bea082a8960431b604482015290519081900360640190fd5b6121437f00000000000000000000000000000000000000000000000000000000000000003488888080602002602001604051908101604052809392919081815260200183836020028082843760009201919091525061340692505050565b9150868260018451038151811061215657fe5b6020026020010151101561219b5760405162461bcd60e51b815260040180806020018281038252602681526020018061465c6026913960400191505060405180910390fd5b7f00000000000000000000000000000000000000000000000000000000000000006001600160a01b031663d0e30db0836000815181106121d757fe5b60200260200101516040518263ffffffff1660e01b81526004016000604051808303818588803b15801561220a57600080fd5b505af115801561221e573d6000803e3d6000fd5b50505050507f00000000000000000000000000000000000000000000000000000000000000006001600160a01b031663a9059cbb6122837f0000000000000000000000000000000000000000000000000000000000000000898960008181106112f457fe5b8460008151811061229057fe5b60200260200101516040518363ffffffff1660e01b815260040180836001600160a01b03166001600160a01b0316815260200182815260200192505050602060405180830381600087803b1580156122e757600080fd5b505af11580156122fb573d6000803e3d6000fd5b505050506040513d602081101561231157600080fd5b505161231957fe5b611ebe828787808060200260200160405190810160405280939291908181526020018383602002808284376000920191909152508992506136af915050565b6000610cfa848484613e60565b600081428110156123b3576040805162461bcd60e51b815260206004820152601360248201527214195c19549bdd5d195c8e8811561412549151606a1b604482015290519081900360640190fd5b6123e2887f000000000000000000000000000000000000000000000000000000000000000089898930896124ee565b604080516370a0823160e01b8152306004820152905191945061246692508a9187916001600160a01b038416916370a0823191602480820192602092909190829003018186803b15801561243557600080fd5b505afa158015612449573d6000803e3d6000fd5b505050506040513d602081101561245f57600080fd5b5051613f22565b7f00000000000000000000000000000000000000000000000000000000000000006001600160a01b0316632e1a7d4d836040518263ffffffff1660e01b815260040180828152602001915050600060405180830381600087803b1580156124cc57600080fd5b505af11580156124e0573d6000803e3d6000fd5b505050506111278483613c7d565b600080824281101561253d576040805162461bcd60e51b815260206004820152601360248201527214195c19549bdd5d195c8e8811561412549151606a1b604482015290519081900360640190fd5b600061256a7f00000000000000000000000000000000000000000000000000000000000000008c8c61332e565b604080516323b872dd60e01b81523360048201526001600160a01b03831660248201819052604482018d9052915192935090916323b872dd916064808201926020929091908290030181600087803b1580156125c557600080fd5b505af11580156125d9573d6000803e3d6000fd5b505050506040513d60208110156125ef57600080fd5b5050604080517f89afcb440000000000000000000000000000000000000000000000000000000081526001600160a01b03888116600483015282516000938493928616926389afcb44926024808301939282900301818787803b15801561265557600080fd5b505af1158015612669573d6000803e3d6000fd5b505050506040513d604081101561267f57600080fd5b508051602090910151909250905060006126998e8e6140ba565b509050806001600160a01b03168e6001600160a01b0316146126bc5781836126bf565b82825b90975095508a8710156127035760405162461bcd60e51b81526004018080602001828103825260218152602001806145f36021913960400191505060405180910390fd5b898610156127425760405162461bcd60e51b81526004018080602001828103825260218152602001806146146021913960400191505060405180910390fd5b505050505097509795505050505050565b7f000000000000000000000000000000000000000000000000000000000000000081565b6060610d2f7f00000000000000000000000000000000000000000000000000000000000000008484613406565b80428110156127f0576040805162461bcd60e51b815260206004820152601360248201527214195c19549bdd5d195c8e8811561412549151606a1b604482015290519081900360640190fd5b6001600160a01b037f0000000000000000000000000000000000000000000000000000000000000000168585600019810181811061282a57fe5b905060200201356001600160a01b03166001600160a01b031614612890576040805162461bcd60e51b81526020600482015260186024820152770a0cae0caa4deeae8cae47440929cac82989288bea082a8960431b604482015290519081900360640190fd5b6128a0858560008181106115cb57fe5b6128de8585808060200260200160405190810160405280939291908181526020018383602002808284376000920191909152503092506138f5915050565b604080516370a0823160e01b815230600482015290516000916001600160a01b037f000000000000000000000000000000000000000000000000000000000000000016916370a0823191602480820192602092909190829003018186803b15801561294857600080fd5b505afa15801561295c573d6000803e3d6000fd5b505050506040513d602081101561297257600080fd5b50519050868110156129b55760405162461bcd60e51b815260040180806020018281038252602681526020018061465c6026913960400191505060405180910390fd5b7f00000000000000000000000000000000000000000000000000000000000000006001600160a01b0316632e1a7d4d826040518263ffffffff1660e01b815260040180828152602001915050600060405180830381600087803b158015612a1b57600080fd5b505af1158015612a2f573d6000803e3d6000fd5b505050506115658482613c7d565b60608142811015612a8b576040805162461bcd60e51b815260206004820152601360248201527214195c19549bdd5d195c8e8811561412549151606a1b604482015290519081900360640190fd5b6001600160a01b037f00000000000000000000000000000000000000000000000000000000000000001686866000198101818110612ac557fe5b905060200201356001600160a01b03166001600160a01b031614612b2b576040805162461bcd60e51b81526020600482015260186024820152770a0cae0caa4deeae8cae47440929cac82989288bea082a8960431b604482015290519081900360640190fd5b612b897f0000000000000000000000000000000000000000000000000000000000000000898888808060200260200160405190810160405280939291908181526020018383602002808284376000920191909152506131e192505050565b91508682600081518110612b9957fe5b602002602001015111156119145760405162461bcd60e51b81526004018080602001828103825260228152602001806146826022913960400191505060405180910390fd5b6000808242811015612c2d576040805162461bcd60e51b815260206004820152601360248201527214195c19549bdd5d195c8e8811561412549151606a1b604482015290519081900360640190fd5b612c5c897f00000000000000000000000000000000000000000000000000000000000000008a8a8a308a6124ee565b9093509150612c6c898685613f22565b7f00000000000000000000000000000000000000000000000000000000000000006001600160a01b0316632e1a7d4d836040518263ffffffff1660e01b815260040180828152602001915050600060405180830381600087803b158015612cd257600080fd5b505af1158015612ce6573d6000803e3d6000fd5b50505050612cf48583613c7d565b50965096945050505050565b60008060008342811015612d51576040805162461bcd60e51b815260206004820152601360248201527214195c19549bdd5d195c8e8811561412549151606a1b604482015290519081900360640190fd5b612d5f8c8c8c8c8c8c6141ae565b90945092506000612d917f00000000000000000000000000000000000000000000000000000000000000008e8e61332e565b9050612d9f8d33838861353d565b612dab8c33838761353d565b806001600160a01b0316636a627842886040518263ffffffff1660e01b815260040180826001600160a01b03166001600160a01b03168152602001915050602060405180830381600087803b158015612e0357600080fd5b505af1158015612e17573d6000803e3d6000fd5b505050506040513d6020811015612e2d57600080fd5b5051949d939c50939a509198505050505050505050565b60008060008342811015612e95576040805162461bcd60e51b815260206004820152601360248201527214195c19549bdd5d195c8e8811561412549151606a1b604482015290519081900360640190fd5b612ec38a7f00000000000000000000000000000000000000000000000000000000000000008b348c8c6141ae565b90945092506000612f157f00000000000000000000000000000000000000000000000000000000000000008c7f000000000000000000000000000000000000000000000000000000000000000061332e565b9050612f238b33838861353d565b7f00000000000000000000000000000000000000000000000000000000000000006001600160a01b031663d0e30db0856040518263ffffffff1660e01b81526004016000604051808303818588803b158015612f7e57600080fd5b505af1158015612f92573d6000803e3d6000fd5b50505050507f00000000000000000000000000000000000000000000000000000000000000006001600160a01b031663a9059cbb82866040518363ffffffff1660e01b815260040180836001600160a01b03166001600160a01b0316815260200182815260200192505050602060405180830381600087803b15801561301757600080fd5b505af115801561302b573d6000803e3d6000fd5b505050506040513d602081101561304157600080fd5b505161304957fe5b806001600160a01b0316636a627842886040518263ffffffff1660e01b815260040180826001600160a01b03166001600160a01b03168152602001915050602060405180830381600087803b1580156130a157600080fd5b505af11580156130b5573d6000803e3d6000fd5b505050506040513d60208110156130cb57600080fd5b50519250348410156130e3576130e333853403613c7d565b505096509650969350505050565b60008084116131315760405162461bcd60e51b815260040180806020018281038252602681526020018061470e6026913960400191505060405180910390fd5b6000831180156131415750600082115b61317c5760405162461bcd60e51b81526004018080602001828103825260238152602001806146a46023913960400191505060405180910390fd5b6000613190856103e663ffffffff61445416565b905060006131a4828563ffffffff61445416565b905060006131ca836131be886103e863ffffffff61445416565b9063ffffffff6144c016565b90508082816131d557fe5b04979650505050505050565b606060028251101561323a576040805162461bcd60e51b815260206004820152601960248201527f506570654c6962726172793a20494e56414c49445f5041544800000000000000604482015290519081900360640190fd5b815167ffffffffffffffff8111801561325257600080fd5b5060405190808252806020026020018201604052801561327c578160200160208202803683370190505b509050828160018351038151811061329057fe5b60209081029190910101528151600019015b8015613326576000806132df878660018603815181106132be57fe5b60200260200101518786815181106132d257fe5b6020026020010151614518565b915091506133018484815181106132f257fe5b60200260200101518383613d70565b84600185038151811061331057fe5b60209081029190910101525050600019016132a2565b509392505050565b600080600061333d85856140ba565b604080516bffffffffffffffffffffffff19606094851b811660208084019190915293851b81166034830152825160288184030181526048830184528051908501207fff0000000000000000000000000000000000000000000000000000000000000060688401529a90941b9093166069840152607d8301989098527f6d395a271f42efda7062860d9b1ad4552ca63d84b4755f47065a5bdc23e4121a609d808401919091528851808403909101815260bd909201909752805196019590952095945050505050565b606060028251101561345f576040805162461bcd60e51b815260206004820152601960248201527f506570654c6962726172793a20494e56414c49445f5041544800000000000000604482015290519081900360640190fd5b815167ffffffffffffffff8111801561347757600080fd5b506040519080825280602002602001820160405280156134a1578160200160208202803683370190505b50905082816000815181106134b257fe5b60200260200101818152505060005b6001835103811015613326576000806134f7878685815181106134e057fe5b60200260200101518786600101815181106132d257fe5b9150915061351984848151811061350a57fe5b602002602001015183836130f1565b84846001018151811061352857fe5b602090810291909101015250506001016134c1565b604080516001600160a01b0385811660248301528481166044830152606480830185905283518084039091018152608490920183526020820180517bffffffffffffffffffffffffffffffffffffffffffffffffffffffff166323b872dd60e01b17815292518251600094606094938a169392918291908083835b602083106135d75780518252601f1990920191602091820191016135b8565b6001836020036101000a0380198251168184511680821785525050505050509050019150506000604051808303816000865af19150503d8060008114613639576040519150601f19603f3d011682016040523d82523d6000602084013e61363e565b606091505b509150915081801561366c57508051158061366c575080806020019051602081101561366957600080fd5b50515b6136a75760405162461bcd60e51b81526004018080602001828103825260248152602001806146ea6024913960400191505060405180910390fd5b505050505050565b60005b60018351038110156138ef576000808483815181106136cd57fe5b60200260200101518584600101815181106136e457fe5b60200260200101519150915060006136fc83836140ba565b509050600087856001018151811061371057fe5b60200260200101519050600080836001600160a01b0316866001600160a01b03161461373e57826000613742565b6000835b91509150600060028a51038810613759578861379a565b61379a7f0000000000000000000000000000000000000000000000000000000000000000878c8b6002018151811061378d57fe5b602002602001015161332e565b90506137c77f0000000000000000000000000000000000000000000000000000000000000000888861332e565b6001600160a01b031663022c0d9f84848460006040519080825280601f01601f191660200182016040528015613804576020820181803683370190505b506040518563ffffffff1660e01b815260040180858152602001848152602001836001600160a01b03166001600160a01b0316815260200180602001828103825283818151815260200191508051906020019080838360005b8381101561387557818101518382015260200161385d565b50505050905090810190601f1680156138a25780820380516001836020036101000a031916815260200191505b5095505050505050600060405180830381600087803b1580156138c457600080fd5b505af11580156138d8573d6000803e3d6000fd5b5050600190990198506136b2975050505050505050565b50505050565b60005b6001835103811015613c205760008084838151811061391357fe5b602002602001015185846001018151811061392a57fe5b602002602001015191509150600061394283836140ba565b50905060006139727f0000000000000000000000000000000000000000000000000000000000000000858561332e565b9050600080600080846001600160a01b0316630902f1ac6040518163ffffffff1660e01b815260040160606040518083038186803b1580156139b357600080fd5b505afa1580156139c7573d6000803e3d6000fd5b505050506040513d60608110156139dd57600080fd5b5080516020909101516dffffffffffffffffffffffffffff91821693501690506000806001600160a01b038a811690891614613a1a578284613a1d565b83835b91509150613a7b828b6001600160a01b03166370a082318a6040518263ffffffff1660e01b815260040180826001600160a01b03166001600160a01b0316815260200191505060206040518083038186803b1580156114f057600080fd5b9550613a888683836130f1565b945050505050600080856001600160a01b0316886001600160a01b031614613ab257826000613ab6565b6000835b91509150600060028c51038a10613acd578a613b01565b613b017f0000000000000000000000000000000000000000000000000000000000000000898e8d6002018151811061378d57fe5b60408051600080825260208201928390527f022c0d9f00000000000000000000000000000000000000000000000000000000835260248201878152604483018790526001600160a01b038086166064850152608060848501908152845160a48601819052969750908c169563022c0d9f958a958a958a9591949193919260c486019290918190849084905b83811015613ba4578181015183820152602001613b8c565b50505050905090810190601f168015613bd15780820380516001836020036101000a031916815260200191505b5095505050505050600060405180830381600087803b158015613bf357600080fd5b505af1158015613c07573d6000803e3d6000fd5b50506001909b019a506138f89950505050505050505050565b505050565b80820382811115610d32576040805162461bcd60e51b815260206004820152601560248201527f64732d6d6174682d7375622d756e646572666c6f770000000000000000000000604482015290519081900360640190fd5b604080516000808252602082019092526001600160a01b0384169083906040518082805190602001908083835b60208310613cc95780518252601f199092019160209182019101613caa565b6001836020036101000a03801982511681845116808217855250505050505090500191505060006040518083038185875af1925050503d8060008114613d2b576040519150601f19603f3d011682016040523d82523d6000602084013e613d30565b606091505b5050905080613c205760405162461bcd60e51b81526004018080602001828103825260238152602001806146c76023913960400191505060405180910390fd5b6000808411613db05760405162461bcd60e51b81526004018080602001828103825260278152602001806146356027913960400191505060405180910390fd5b600083118015613dc05750600082115b613dfb5760405162461bcd60e51b81526004018080602001828103825260238152602001806146a46023913960400191505060405180910390fd5b6000613e1f6103e8613e13868863ffffffff61445416565b9063ffffffff61445416565b90506000613e396103e6613e13868963ffffffff613c2516565b9050613e566001828481613e4957fe5b049063ffffffff6144c016565b9695505050505050565b6000808411613eb6576040805162461bcd60e51b815260206004820181905260248201527f506570654c6962726172793a20494e53554646494349454e545f414d4f554e54604482015290519081900360640190fd5b600083118015613ec65750600082115b613f015760405162461bcd60e51b81526004018080602001828103825260238152602001806146a46023913960400191505060405180910390fd5b82613f12858463ffffffff61445416565b81613f1957fe5b04949350505050565b604080516001600160a01b038481166024830152604480830185905283518084039091018152606490920183526020820180517bffffffffffffffffffffffffffffffffffffffffffffffffffffffff167fa9059cbb00000000000000000000000000000000000000000000000000000000178152925182516000946060949389169392918291908083835b60208310613fcd5780518252601f199092019160209182019101613fae565b6001836020036101000a0380198251168184511680821785525050505050509050019150506000604051808303816000865af19150503d806000811461402f576040519150601f19603f3d011682016040523d82523d6000602084013e614034565b606091505b5091509150818015614062575080511580614062575080806020019051602081101561405f57600080fd5b50515b6140b3576040805162461bcd60e51b815260206004820152601f60248201527f5472616e7366657248656c7065723a205452414e534645525f4641494c454400604482015290519081900360640190fd5b5050505050565b600080826001600160a01b0316846001600160a01b03161415614124576040805162461bcd60e51b815260206004820181905260248201527f506570654c6962726172793a204944454e544943414c5f414444524553534553604482015290519081900360640190fd5b826001600160a01b0316846001600160a01b031610614144578284614147565b83835b90925090506001600160a01b0382166141a7576040805162461bcd60e51b815260206004820152601960248201527f506570654c6962726172793a205a45524f5f4144445245535300000000000000604482015290519081900360640190fd5b9250929050565b604080517fe6a439050000000000000000000000000000000000000000000000000000000081526001600160a01b03888116600483015287811660248301529151600092839283927f00000000000000000000000000000000000000000000000000000000000000009092169163e6a4390591604480820192602092909190829003018186803b15801561424157600080fd5b505afa158015614255573d6000803e3d6000fd5b505050506040513d602081101561426b57600080fd5b50516001600160a01b0316141561433757604080517fc9c653960000000000000000000000000000000000000000000000000000000081526001600160a01b038a81166004830152898116602483015291517f00000000000000000000000000000000000000000000000000000000000000009092169163c9c65396916044808201926020929091908290030181600087803b15801561430a57600080fd5b505af115801561431e573d6000803e3d6000fd5b505050506040513d602081101561433457600080fd5b50505b6000806143657f00000000000000000000000000000000000000000000000000000000000000008b8b614518565b91509150816000148015614377575080155b1561438757879350869250614447565b6000614394898484613e60565b90508781116143e757858110156143dc5760405162461bcd60e51b81526004018080602001828103825260218152602001806146146021913960400191505060405180910390fd5b889450925082614445565b60006143f4898486613e60565b90508981111561440057fe5b8781101561443f5760405162461bcd60e51b81526004018080602001828103825260218152602001806145f36021913960400191505060405180910390fd5b94508793505b505b5050965096945050505050565b600081158061446f5750508082028282828161446c57fe5b04145b610d32576040805162461bcd60e51b815260206004820152601460248201527f64732d6d6174682d6d756c2d6f766572666c6f77000000000000000000000000604482015290519081900360640190fd5b80820182811015610d32576040805162461bcd60e51b815260206004820152601460248201527f64732d6d6174682d6164642d6f766572666c6f77000000000000000000000000604482015290519081900360640190fd5b600080600061452785856140ba565b50905061453586868661332e565b5060008061454488888861332e565b6001600160a01b0316630902f1ac6040518163ffffffff1660e01b815260040160606040518083038186803b15801561457c57600080fd5b505afa158015614590573d6000803e3d6000fd5b505050506040513d60608110156145a657600080fd5b5080516020909101516dffffffffffffffffffffffffffff91821693501690506001600160a01b03878116908416146145e05780826145e3565b81815b9099909850965050505050505056fe50657065526f757465723a20494e53554646494349454e545f415f414d4f554e5450657065526f757465723a20494e53554646494349454e545f425f414d4f554e54506570654c6962726172793a20494e53554646494349454e545f4f55545055545f414d4f554e5450657065526f757465723a20494e53554646494349454e545f4f55545055545f414d4f554e5450657065526f757465723a204558434553534956455f494e5055545f414d4f554e54506570654c6962726172793a20494e53554646494349454e545f4c49515549444954595472616e7366657248656c7065723a20424e425f5452414e534645525f4641494c45445472616e7366657248656c7065723a205452414e534645525f46524f4d5f4641494c4544506570654c6962726172793a20494e53554646494349454e545f494e5055545f414d4f554e54a264697066735822122036315f880882d169e46849352fd23e329883b84eeae891020ca04c367f0dfe1664736f6c63430006060033",
  "immutableReferences": {
    "936": [
      {
        "length": 32,
        "start": 3337
      },
      {
        "length": 32,
        "start": 3394
      },
      {
        "length": 32,
        "start": 3644
      },
      {
        "length": 32,
        "start": 3993
      },
      {
        "length": 32,
        "start": 4208
      },
      {
        "length": 32,
        "start": 4808
      },
      {
        "length": 32,
        "start": 5601
      },
      {
        "length": 32,
        "start": 6243
      },
      {
        "length": 32,
        "start": 6689
      },
      {
        "length": 32,
        "start": 7191
      },
      {
        "length": 32,
        "start": 7553
      },
      {
        "length": 32,
        "start": 7976
      },
      {
        "length": 32,
        "start": 8426
      },
      {
        "length": 32,
        "start": 8791
      },
      {
        "length": 32,
        "start": 9540
      },
      {
        "length": 32,
        "start": 10069
      },
      {
        "length": 32,
        "start": 10110
      },
      {
        "length": 32,
        "start": 11056
      },
      {
        "length": 32,
        "start": 11627
      },
      {
        "length": 32,
        "start": 11983
      },
      {
        "length": 32,
        "start": 14174
      },
      {
        "length": 32,
        "start": 14241
      },
      {
        "length": 32,
        "start": 14668
      },
      {
        "length": 32,
        "start": 15058
      },
      {
        "length": 32,
        "start": 16888
      },
      {
        "length": 32,
        "start": 17087
      },
      {
        "length": 32,
        "start": 17215
      }
    ],
    "939": [
      {
        "length": 32,
        "start": 415
      },
      {
        "length": 32,
        "start": 3678
      },
      {
        "length": 32,
        "start": 4480
      },
      {
        "length": 32,
        "start": 4642
      },
      {
        "length": 32,
        "start": 4758
      },
      {
        "length": 32,
        "start": 6088
      },
      {
        "length": 32,
        "start": 6501
      },
      {
        "length": 32,
        "start": 6723
      },
      {
        "length": 32,
        "start": 7031
      },
      {
        "length": 32,
        "start": 7367
      },
      {
        "length": 32,
        "start": 7503
      },
      {
        "length": 32,
        "start": 8152
      },
      {
        "length": 32,
        "start": 8266
      },
      {
        "length": 32,
        "start": 8605
      },
      {
        "length": 32,
        "start": 8741
      },
      {
        "length": 32,
        "start": 9145
      },
      {
        "length": 32,
        "start": 9320
      },
      {
        "length": 32,
        "start": 10234
      },
      {
        "length": 32,
        "start": 10497
      },
      {
        "length": 32,
        "start": 10679
      },
      {
        "length": 32,
        "start": 10901
      },
      {
        "length": 32,
        "start": 11315
      },
      {
        "length": 32,
        "start": 11374
      },
      {
        "length": 32,
        "start": 11931
      },
      {
        "length": 32,
        "start": 12017
      },
      {
        "length": 32,
        "start": 12069
      },
      {
        "length": 32,
        "start": 12185
      }
    ]
  },
  "source": "pragma solidity =0.6.6;\r\n\r\nimport '@uniswap/v2-core/contracts/interfaces/IUniswapV2Factory.sol';\r\n\r\nimport './libraries/TransferHelper.sol';\r\nimport './interfaces/IPepeRouter02.sol';\r\nimport './libraries/PepeLibrary.sol';\r\nimport './libraries/SafeMath.sol';\r\nimport './interfaces/IERC20.sol';\r\nimport './interfaces/IWBNB.sol';\r\n\r\ncontract PepeRouter is IPepeRouter02 {\r\n    using SafeMath for uint;\r\n\r\n    address public immutable override factory;\r\n    address public immutable override WBNB;\r\n\r\n    modifier ensure(uint deadline) {\r\n        require(deadline >= block.timestamp, 'PepeRouter: EXPIRED');\r\n        _;\r\n    }\r\n\r\n    constructor(address _factory, address _WBNB) public {\r\n        factory = _factory;\r\n        WBNB = _WBNB;\r\n    }\r\n\r\n    receive() external payable {\r\n        assert(msg.sender == WBNB); // only accept BNB via fallback from the WBNB contract\r\n    }\r\n\r\n    // **** ADD LIQUIDITY ****\r\n    function _addLiquidity(\r\n        address tokenA,\r\n        address tokenB,\r\n        uint amountADesired,\r\n        uint amountBDesired,\r\n        uint amountAMin,\r\n        uint amountBMin\r\n    ) internal virtual returns (uint amountA, uint amountB) {\r\n        // create the pair if it doesn't exist yet\r\n        if (IUniswapV2Factory(factory).getPair(tokenA, tokenB) == address(0)) {\r\n            IUniswapV2Factory(factory).createPair(tokenA, tokenB);\r\n        }\r\n        (uint reserveA, uint reserveB) = PepeLibrary.getReserves(factory, tokenA, tokenB);\r\n        if (reserveA == 0 && reserveB == 0) {\r\n            (amountA, amountB) = (amountADesired, amountBDesired);\r\n        } else {\r\n            uint amountBOptimal = PepeLibrary.quote(amountADesired, reserveA, reserveB);\r\n            if (amountBOptimal <= amountBDesired) {\r\n                require(amountBOptimal >= amountBMin, 'PepeRouter: INSUFFICIENT_B_AMOUNT');\r\n                (amountA, amountB) = (amountADesired, amountBOptimal);\r\n            } else {\r\n                uint amountAOptimal = PepeLibrary.quote(amountBDesired, reserveB, reserveA);\r\n                assert(amountAOptimal <= amountADesired);\r\n                require(amountAOptimal >= amountAMin, 'PepeRouter: INSUFFICIENT_A_AMOUNT');\r\n                (amountA, amountB) = (amountAOptimal, amountBDesired);\r\n            }\r\n        }\r\n    }\r\n    function addLiquidity(\r\n        address tokenA,\r\n        address tokenB,\r\n        uint amountADesired,\r\n        uint amountBDesired,\r\n        uint amountAMin,\r\n        uint amountBMin,\r\n        address to,\r\n        uint deadline\r\n    ) external virtual override ensure(deadline) returns (uint amountA, uint amountB, uint liquidity) {\r\n        (amountA, amountB) = _addLiquidity(tokenA, tokenB, amountADesired, amountBDesired, amountAMin, amountBMin);\r\n        address pair = PepeLibrary.pairFor(factory, tokenA, tokenB);\r\n        TransferHelper.safeTransferFrom(tokenA, msg.sender, pair, amountA);\r\n        TransferHelper.safeTransferFrom(tokenB, msg.sender, pair, amountB);\r\n        liquidity = IUniswapV2Pair(pair).mint(to);\r\n    }\r\n    function addLiquidityBNB(\r\n        address token,\r\n        uint amountTokenDesired,\r\n        uint amountTokenMin,\r\n        uint amountBNBMin,\r\n        address to,\r\n        uint deadline\r\n    ) external virtual override payable ensure(deadline) returns (uint amountToken, uint amountBNB, uint liquidity) {\r\n        (amountToken, amountBNB) = _addLiquidity(\r\n            token,\r\n            WBNB,\r\n            amountTokenDesired,\r\n            msg.value,\r\n            amountTokenMin,\r\n            amountBNBMin\r\n        );\r\n        address pair = PepeLibrary.pairFor(factory, token, WBNB);\r\n        TransferHelper.safeTransferFrom(token, msg.sender, pair, amountToken);\r\n        IWBNB(WBNB).deposit{value: amountBNB}();\r\n        assert(IWBNB(WBNB).transfer(pair, amountBNB));\r\n        liquidity = IUniswapV2Pair(pair).mint(to);\r\n        // refund dust bnb, if any\r\n        if (msg.value > amountBNB) TransferHelper.safeTransferBNB(msg.sender, msg.value - amountBNB);\r\n    }\r\n\r\n    // **** REMOVE LIQUIDITY ****\r\n    function removeLiquidity(\r\n        address tokenA,\r\n        address tokenB,\r\n        uint liquidity,\r\n        uint amountAMin,\r\n        uint amountBMin,\r\n        address to,\r\n        uint deadline\r\n    ) public virtual override ensure(deadline) returns (uint amountA, uint amountB) {\r\n        address pair = PepeLibrary.pairFor(factory, tokenA, tokenB);\r\n        IUniswapV2Pair(pair).transferFrom(msg.sender, pair, liquidity); // send liquidity to pair\r\n        (uint amount0, uint amount1) = IUniswapV2Pair(pair).burn(to);\r\n        (address token0,) = PepeLibrary.sortTokens(tokenA, tokenB);\r\n        (amountA, amountB) = tokenA == token0 ? (amount0, amount1) : (amount1, amount0);\r\n        require(amountA >= amountAMin, 'PepeRouter: INSUFFICIENT_A_AMOUNT');\r\n        require(amountB >= amountBMin, 'PepeRouter: INSUFFICIENT_B_AMOUNT');\r\n    }\r\n    function removeLiquidityBNB(\r\n        address token,\r\n        uint liquidity,\r\n        uint amountTokenMin,\r\n        uint amountBNBMin,\r\n        address to,\r\n        uint deadline\r\n    ) public virtual override ensure(deadline) returns (uint amountToken, uint amountBNB) {\r\n        (amountToken, amountBNB) = removeLiquidity(\r\n            token,\r\n            WBNB,\r\n            liquidity,\r\n            amountTokenMin,\r\n            amountBNBMin,\r\n            address(this),\r\n            deadline\r\n        );\r\n        TransferHelper.safeTransfer(token, to, amountToken);\r\n        IWBNB(WBNB).withdraw(amountBNB);\r\n        TransferHelper.safeTransferBNB(to, amountBNB);\r\n    }\r\n    function removeLiquidityWithPermit(\r\n        address tokenA,\r\n        address tokenB,\r\n        uint liquidity,\r\n        uint amountAMin,\r\n        uint amountBMin,\r\n        address to,\r\n        uint deadline,\r\n        bool approveMax, uint8 v, bytes32 r, bytes32 s\r\n    ) external virtual override returns (uint amountA, uint amountB) {\r\n        address pair = PepeLibrary.pairFor(factory, tokenA, tokenB);\r\n        uint value = approveMax ? uint(-1) : liquidity;\r\n        IUniswapV2Pair(pair).permit(msg.sender, address(this), value, deadline, v, r, s);\r\n        (amountA, amountB) = removeLiquidity(tokenA, tokenB, liquidity, amountAMin, amountBMin, to, deadline);\r\n    }\r\n    function removeLiquidityBNBWithPermit(\r\n        address token,\r\n        uint liquidity,\r\n        uint amountTokenMin,\r\n        uint amountBNBMin,\r\n        address to,\r\n        uint deadline,\r\n        bool approveMax, uint8 v, bytes32 r, bytes32 s\r\n    ) external virtual override returns (uint amountToken, uint amountBNB) {\r\n        address pair = PepeLibrary.pairFor(factory, token, WBNB);\r\n        uint value = approveMax ? uint(-1) : liquidity;\r\n        IUniswapV2Pair(pair).permit(msg.sender, address(this), value, deadline, v, r, s);\r\n        (amountToken, amountBNB) = removeLiquidityBNB(token, liquidity, amountTokenMin, amountBNBMin, to, deadline);\r\n    }\r\n\r\n    // **** REMOVE LIQUIDITY (supporting fee-on-transfer tokens) ****\r\n    function removeLiquidityBNBSupportingFeeOnTransferTokens(\r\n        address token,\r\n        uint liquidity,\r\n        uint amountTokenMin,\r\n        uint amountBNBMin,\r\n        address to,\r\n        uint deadline\r\n    ) public virtual override ensure(deadline) returns (uint amountBNB) {\r\n        (, amountBNB) = removeLiquidity(\r\n            token,\r\n            WBNB,\r\n            liquidity,\r\n            amountTokenMin,\r\n            amountBNBMin,\r\n            address(this),\r\n            deadline\r\n        );\r\n        TransferHelper.safeTransfer(token, to, IERC20(token).balanceOf(address(this)));\r\n        IWBNB(WBNB).withdraw(amountBNB);\r\n        TransferHelper.safeTransferBNB(to, amountBNB);\r\n    }\r\n    function removeLiquidityBNBWithPermitSupportingFeeOnTransferTokens(\r\n        address token,\r\n        uint liquidity,\r\n        uint amountTokenMin,\r\n        uint amountBNBMin,\r\n        address to,\r\n        uint deadline,\r\n        bool approveMax, uint8 v, bytes32 r, bytes32 s\r\n    ) external virtual override returns (uint amountBNB) {\r\n        address pair = PepeLibrary.pairFor(factory, token, WBNB);\r\n        uint value = approveMax ? uint(-1) : liquidity;\r\n        IUniswapV2Pair(pair).permit(msg.sender, address(this), value, deadline, v, r, s);\r\n        amountBNB = removeLiquidityBNBSupportingFeeOnTransferTokens(\r\n            token, liquidity, amountTokenMin, amountBNBMin, to, deadline\r\n        );\r\n    }\r\n\r\n    // **** SWAP ****\r\n    // requires the initial amount to have already been sent to the first pair\r\n    function _swap(uint[] memory amounts, address[] memory path, address _to) internal virtual {\r\n        for (uint i; i < path.length - 1; i++) {\r\n            (address input, address output) = (path[i], path[i + 1]);\r\n            (address token0,) = PepeLibrary.sortTokens(input, output);\r\n            uint amountOut = amounts[i + 1];\r\n            (uint amount0Out, uint amount1Out) = input == token0 ? (uint(0), amountOut) : (amountOut, uint(0));\r\n            address to = i < path.length - 2 ? PepeLibrary.pairFor(factory, output, path[i + 2]) : _to;\r\n            IUniswapV2Pair(PepeLibrary.pairFor(factory, input, output)).swap(\r\n                amount0Out, amount1Out, to, new bytes(0)\r\n            );\r\n        }\r\n    }\r\n    function swapExactTokensForTokens(\r\n        uint amountIn,\r\n        uint amountOutMin,\r\n        address[] calldata path,\r\n        address to,\r\n        uint deadline\r\n    ) external virtual override ensure(deadline) returns (uint[] memory amounts) {\r\n        amounts = PepeLibrary.getAmountsOut(factory, amountIn, path);\r\n        require(amounts[amounts.length - 1] >= amountOutMin, 'PepeRouter: INSUFFICIENT_OUTPUT_AMOUNT');\r\n        TransferHelper.safeTransferFrom(\r\n            path[0], msg.sender, PepeLibrary.pairFor(factory, path[0], path[1]), amounts[0]\r\n        );\r\n        _swap(amounts, path, to);\r\n    }\r\n    function swapTokensForExactTokens(\r\n        uint amountOut,\r\n        uint amountInMax,\r\n        address[] calldata path,\r\n        address to,\r\n        uint deadline\r\n    ) external virtual override ensure(deadline) returns (uint[] memory amounts) {\r\n        amounts = PepeLibrary.getAmountsIn(factory, amountOut, path);\r\n        require(amounts[0] <= amountInMax, 'PepeRouter: EXCESSIVE_INPUT_AMOUNT');\r\n        TransferHelper.safeTransferFrom(\r\n            path[0], msg.sender, PepeLibrary.pairFor(factory, path[0], path[1]), amounts[0]\r\n        );\r\n        _swap(amounts, path, to);\r\n    }\r\n    function swapExactBNBForTokens(uint amountOutMin, address[] calldata path, address to, uint deadline)\r\n        external\r\n        virtual\r\n        override\r\n        payable\r\n        ensure(deadline)\r\n        returns (uint[] memory amounts)\r\n    {\r\n        require(path[0] == WBNB, 'PepeRouter: INVALID_PATH');\r\n        amounts = PepeLibrary.getAmountsOut(factory, msg.value, path);\r\n        require(amounts[amounts.length - 1] >= amountOutMin, 'PepeRouter: INSUFFICIENT_OUTPUT_AMOUNT');\r\n        IWBNB(WBNB).deposit{value: amounts[0]}();\r\n        assert(IWBNB(WBNB).transfer(PepeLibrary.pairFor(factory, path[0], path[1]), amounts[0]));\r\n        _swap(amounts, path, to);\r\n    }\r\n    function swapTokensForExactBNB(uint amountOut, uint amountInMax, address[] calldata path, address to, uint deadline)\r\n        external\r\n        virtual\r\n        override\r\n        ensure(deadline)\r\n        returns (uint[] memory amounts)\r\n    {\r\n        require(path[path.length - 1] == WBNB, 'PepeRouter: INVALID_PATH');\r\n        amounts = PepeLibrary.getAmountsIn(factory, amountOut, path);\r\n        require(amounts[0] <= amountInMax, 'PepeRouter: EXCESSIVE_INPUT_AMOUNT');\r\n        TransferHelper.safeTransferFrom(\r\n            path[0], msg.sender, PepeLibrary.pairFor(factory, path[0], path[1]), amounts[0]\r\n        );\r\n        _swap(amounts, path, address(this));\r\n        IWBNB(WBNB).withdraw(amounts[amounts.length - 1]);\r\n        TransferHelper.safeTransferBNB(to, amounts[amounts.length - 1]);\r\n    }\r\n    function swapExactTokensForBNB(uint amountIn, uint amountOutMin, address[] calldata path, address to, uint deadline)\r\n        external\r\n        virtual\r\n        override\r\n        ensure(deadline)\r\n        returns (uint[] memory amounts)\r\n    {\r\n        require(path[path.length - 1] == WBNB, 'PepeRouter: INVALID_PATH');\r\n        amounts = PepeLibrary.getAmountsOut(factory, amountIn, path);\r\n        require(amounts[amounts.length - 1] >= amountOutMin, 'PepeRouter: INSUFFICIENT_OUTPUT_AMOUNT');\r\n        TransferHelper.safeTransferFrom(\r\n            path[0], msg.sender, PepeLibrary.pairFor(factory, path[0], path[1]), amounts[0]\r\n        );\r\n        _swap(amounts, path, address(this));\r\n        IWBNB(WBNB).withdraw(amounts[amounts.length - 1]);\r\n        TransferHelper.safeTransferBNB(to, amounts[amounts.length - 1]);\r\n    }\r\n    function swapBNBForExactTokens(uint amountOut, address[] calldata path, address to, uint deadline)\r\n        external\r\n        virtual\r\n        override\r\n        payable\r\n        ensure(deadline)\r\n        returns (uint[] memory amounts)\r\n    {\r\n        require(path[0] == WBNB, 'PepeRouter: INVALID_PATH');\r\n        amounts = PepeLibrary.getAmountsIn(factory, amountOut, path);\r\n        require(amounts[0] <= msg.value, 'PepeRouter: EXCESSIVE_INPUT_AMOUNT');\r\n        IWBNB(WBNB).deposit{value: amounts[0]}();\r\n        assert(IWBNB(WBNB).transfer(PepeLibrary.pairFor(factory, path[0], path[1]), amounts[0]));\r\n        _swap(amounts, path, to);\r\n        // refund dust bnb, if any\r\n        if (msg.value > amounts[0]) TransferHelper.safeTransferBNB(msg.sender, msg.value - amounts[0]);\r\n    }\r\n\r\n    // **** SWAP (supporting fee-on-transfer tokens) ****\r\n    // requires the initial amount to have already been sent to the first pair\r\n    function _swapSupportingFeeOnTransferTokens(address[] memory path, address _to) internal virtual {\r\n        for (uint i; i < path.length - 1; i++) {\r\n            (address input, address output) = (path[i], path[i + 1]);\r\n            (address token0,) = PepeLibrary.sortTokens(input, output);\r\n            IUniswapV2Pair pair = IUniswapV2Pair(PepeLibrary.pairFor(factory, input, output));\r\n            uint amountInput;\r\n            uint amountOutput;\r\n            { // scope to avoid stack too deep errors\r\n            (uint reserve0, uint reserve1,) = pair.getReserves();\r\n            (uint reserveInput, uint reserveOutput) = input == token0 ? (reserve0, reserve1) : (reserve1, reserve0);\r\n            amountInput = IERC20(input).balanceOf(address(pair)).sub(reserveInput);\r\n            amountOutput = PepeLibrary.getAmountOut(amountInput, reserveInput, reserveOutput);\r\n            }\r\n            (uint amount0Out, uint amount1Out) = input == token0 ? (uint(0), amountOutput) : (amountOutput, uint(0));\r\n            address to = i < path.length - 2 ? PepeLibrary.pairFor(factory, output, path[i + 2]) : _to;\r\n            pair.swap(amount0Out, amount1Out, to, new bytes(0));\r\n        }\r\n    }\r\n    function swapExactTokensForTokensSupportingFeeOnTransferTokens(\r\n        uint amountIn,\r\n        uint amountOutMin,\r\n        address[] calldata path,\r\n        address to,\r\n        uint deadline\r\n    ) external virtual override ensure(deadline) {\r\n        TransferHelper.safeTransferFrom(\r\n            path[0], msg.sender, PepeLibrary.pairFor(factory, path[0], path[1]), amountIn\r\n        );\r\n        uint balanceBefore = IERC20(path[path.length - 1]).balanceOf(to);\r\n        _swapSupportingFeeOnTransferTokens(path, to);\r\n        require(\r\n            IERC20(path[path.length - 1]).balanceOf(to).sub(balanceBefore) >= amountOutMin,\r\n            'PepeRouter: INSUFFICIENT_OUTPUT_AMOUNT'\r\n        );\r\n    }\r\n    function swapExactBNBForTokensSupportingFeeOnTransferTokens(\r\n        uint amountOutMin,\r\n        address[] calldata path,\r\n        address to,\r\n        uint deadline\r\n    )\r\n        external\r\n        virtual\r\n        override\r\n        payable\r\n        ensure(deadline)\r\n    {\r\n        require(path[0] == WBNB, 'PepeRouter: INVALID_PATH');\r\n        uint amountIn = msg.value;\r\n        IWBNB(WBNB).deposit{value: amountIn}();\r\n        assert(IWBNB(WBNB).transfer(PepeLibrary.pairFor(factory, path[0], path[1]), amountIn));\r\n        uint balanceBefore = IERC20(path[path.length - 1]).balanceOf(to);\r\n        _swapSupportingFeeOnTransferTokens(path, to);\r\n        require(\r\n            IERC20(path[path.length - 1]).balanceOf(to).sub(balanceBefore) >= amountOutMin,\r\n            'PepeRouter: INSUFFICIENT_OUTPUT_AMOUNT'\r\n        );\r\n    }\r\n    function swapExactTokensForBNBSupportingFeeOnTransferTokens(\r\n        uint amountIn,\r\n        uint amountOutMin,\r\n        address[] calldata path,\r\n        address to,\r\n        uint deadline\r\n    )\r\n        external\r\n        virtual\r\n        override\r\n        ensure(deadline)\r\n    {\r\n        require(path[path.length - 1] == WBNB, 'PepeRouter: INVALID_PATH');\r\n        TransferHelper.safeTransferFrom(\r\n            path[0], msg.sender, PepeLibrary.pairFor(factory, path[0], path[1]), amountIn\r\n        );\r\n        _swapSupportingFeeOnTransferTokens(path, address(this));\r\n        uint amountOut = IERC20(WBNB).balanceOf(address(this));\r\n        require(amountOut >= amountOutMin, 'PepeRouter: INSUFFICIENT_OUTPUT_AMOUNT');\r\n        IWBNB(WBNB).withdraw(amountOut);\r\n        TransferHelper.safeTransferBNB(to, amountOut);\r\n    }\r\n\r\n    // **** LIBRARY FUNCTIONS ****\r\n    function quote(uint amountA, uint reserveA, uint reserveB) public pure virtual override returns (uint amountB) {\r\n        return PepeLibrary.quote(amountA, reserveA, reserveB);\r\n    }\r\n\r\n    function getAmountOut(uint amountIn, uint reserveIn, uint reserveOut)\r\n        public\r\n        pure\r\n        virtual\r\n        override\r\n        returns (uint amountOut)\r\n    {\r\n        return PepeLibrary.getAmountOut(amountIn, reserveIn, reserveOut);\r\n    }\r\n\r\n    function getAmountIn(uint amountOut, uint reserveIn, uint reserveOut)\r\n        public\r\n        pure\r\n        virtual\r\n        override\r\n        returns (uint amountIn)\r\n    {\r\n        return PepeLibrary.getAmountIn(amountOut, reserveIn, reserveOut);\r\n    }\r\n\r\n    function getAmountsOut(uint amountIn, address[] memory path)\r\n        public\r\n        view\r\n        virtual\r\n        override\r\n        returns (uint[] memory amounts)\r\n    {\r\n        return PepeLibrary.getAmountsOut(factory, amountIn, path);\r\n    }\r\n\r\n    function getAmountsIn(uint amountOut, address[] memory path)\r\n        public\r\n        view\r\n        virtual\r\n        override\r\n        returns (uint[] memory amounts)\r\n    {\r\n        return PepeLibrary.getAmountsIn(factory, amountOut, path);\r\n    }\r\n}\r\n",
  "sourcePath": "/mnt/f/work/pepe/pepe-swap-periphery/contracts/PepeRouter.sol",
  "compiler": {
    "name": "solc",
    "version": "0.6.6+commit.6c089d02.Emscripten.clang"
  },
  "schemaVersion": "3.4.2",
  "updatedAt": "2021-08-04T14:28:35.271Z",
  "networkType": "ethereum",
  "devdoc": {
    "methods": {}
  },
  "userdoc": {
    "methods": {}
  }
}